:100000000C9465000C948D000C948D000C948D0064
:100010000C948D000C948D000C948D000C948D002C
:100020000C948D000C948D000C948D000C948D001C
:100030000C948D000C948D000C948D000C948D000C
:100040000C9476020C948D000C94FB040C943E05E9
:100050000C948D000C948D000C948D000C948D00EC
:100060000C949F070C948D00000000070002010013
:100070000003040600000000000000000102040864
:100080001020408001020408102001020408102002
:10009000040404040404040402020202020203032E
:1000A00003030303000000002300260029000000D2
:1000B0000000250028002B0000000000240027007D
:1000C0002A00DF00FC053707F30011241FBECFEF25
:1000D000D8E0DEBFCDBF11E0A0E0B1E0E2E0F2E1A8
:1000E00002C005900D92AA33B107D9F722E0AAE326
:1000F000B1E001C01D92AD3CB207E1F710E0C8ECE1
:10010000D0E004C02297FE010E94F008C23CD10753
:10011000C9F70E9444030C94F4080C94000064E0B6
:1001200070E08AE092E00E94350740E855E260E026
:1001300070E080E691E00E94790580E691E00E94FF
:10014000FA058823D1F360E071E080E691E00C9439
:10015000AC030F931F93CF93DF938AE391E00E9448
:100160004B01D82FC92F60E171E080E691E00E9439
:100170008F030D2F1C2FC0E0D0E0F8016191719129
:100180008F014AE050E080E691E00E946104C730B0
:10019000D10519F063E171E002C066E171E080E62B
:1001A00091E00E948F032196C830D10531F780E697
:1001B00091E0DF91CF911F910F910C9498032FE064
:1001C00030E04EE050E060E170E08BE391E00E94AF
:1001D000680126E030E045E050E067E070E08AE347
:1001E00091E00C9422018AE391E00E9436018BE3B6
:1001F00091E00C948B0164E670E080E090E00E9456
:10020000E30280E691E00E94690418161906C4F41E
:1002100080E691E00E9492048C3629F48BE391E011
:100220000E948C010DC0833629F48BE391E00E947B
:10023000960106C0843621F48BE391E00E94A00170
:100240000C94A900822F2093520160935101409396
:10025000500161E00E94DE0160E0809151010E9446
:10026000DE0161E0809150010C94DE01089561E0AF
:10027000809150010E94170260E0809150010C941F
:10028000170261E0809152010E94170260E08091A4
:1002900052010C9417020F931F93CF93DF938C019D
:1002A0000E944101CCE3D1E0809151010E944D02B6
:1002B00089939993C8010E94370181E0CE34D80711
:1002C00099F78CE391E0DF91CF911F910F91089501
:1002D000862F60935601409355012093540161E0AD
:1002E0000E94DE0161E0809155010E94DE0161E023
:1002F000809154010E94DE0160E0809156010E94CD
:10030000170260E0809155010E94170260E0809121
:1003100054010C941702089561E0809154010E94E9
:10032000170260E0809154010C94170261E0809103
:1003300055010E94170260E0809155010C9417024C
:1003400080915301882341F060E0809156010E9422
:10035000170210925301089561E0809156010E94A6
:10036000170281E0809353010895833081F028F4CF
:10037000813099F08230A1F008958630A9F087305D
:10038000B9F08430D1F4809180008F7D03C08091DA
:1003900080008F7780938000089584B58F7702C0A6
:1003A00084B58F7D84BD08958091B0008F7703C0A0
:1003B0008091B0008F7D8093B0000895CF93DF933C
:1003C00090E0FC01E458FF4F2491FC01E057FF4FFF
:1003D0008491882349F190E0880F991FFC01E8542B
:1003E000FF4FA591B49182559F4FFC01C591D491C7
:1003F0009FB7611108C0F8948C91209582238C934B
:10040000888182230AC0623051F4F8948C91322F93
:10041000309583238C938881822B888304C0F89441
:100420008C91822B8C939FBFDF91CF9108950F9376
:100430001F93CF93DF931F92CDB7DEB7282F30E005
:10044000F901E859FF4F8491F901E458FF4F1491E5
:10045000F901E057FF4F04910023C9F0882321F0F0
:1004600069830E94B5016981E02FF0E0EE0FFF1F64
:10047000E255FF4FA591B4919FB7F8948C9161110B
:1004800003C01095812301C0812B8C939FBF0F90D7
:10049000DF91CF911F910F910895CF93DF93282F74
:1004A00030E0F901E859FF4F8491F901E458FF4F1A
:1004B000D491F901E057FF4FC491CC2391F0811101
:1004C0000E94B501EC2FF0E0EE0FFF1FEC55FF4F3F
:1004D000A591B4912C912D2381E090E021F480E04E
:1004E00002C080E090E0DF91CF9108951F920F92BB
:1004F0000FB60F9211242F933F938F939F93AF9337
:10050000BF938091580190915901A0915A01B091E7
:100510005B013091570123E0230F2D3720F4019622
:10052000A11DB11D05C026E8230F0296A11DB11D16
:10053000209357018093580190935901A0935A0139
:10054000B0935B0180915C0190915D01A0915E018F
:10055000B0915F010196A11DB11D80935C01909344
:100560005D01A0935E01B0935F01BF91AF919F9138
:100570008F913F912F910F900FBE0F901F90189564
:100580003FB7F89480915C0190915D01A0915E016C
:10059000B0915F0126B5A89B05C02F3F19F00196C9
:1005A000A11DB11D3FBF6627782F892F9A2F620F9B
:1005B000711D811D911D42E0660F771F881F991FD5
:1005C0004A95D1F70895CF92DF92EF92FF92CF93A1
:1005D000DF936B017C010E94C002EB01C114D104C6
:1005E000E104F10479F00E94C0026C1B7D0B683EAF
:1005F0007340A0F381E0C81AD108E108F108C8519E
:10060000DC4FECCFDF91CF91FF90EF90DF90CF9058
:100610000895789484B5826084BD84B5816084BD7A
:1006200085B5826085BD85B5816085BDEEE6F0E06B
:10063000808181608083E1E8F0E0108280818260C7
:100640008083808181608083E0E8F0E08081816048
:100650008083E1EBF0E0808184608083E0EBF0E078
:10066000808181608083EAE7F0E08081846080831C
:1006700080818260808380818160808380818068C6
:1006800080831092C10008950E9409030E948F0088
:10069000C5E3D5E00E94FB002097E1F30E943505F9
:1006A000F9CFCF92DF92EF92FF920F931F93CF93E8
:1006B000DF936C017A01EB01E60EF71E00E010E01B
:1006C000CE15DF0561F06991D601ED91FC910190A5
:1006D000F081E02DC6010995080F191FF1CFC8015F
:1006E000DF91CF911F910F91FF90EF90DF90CF900E
:1006F00008956115710581F0DB010D900020E9F787
:10070000AD0141505109461B570BDC01ED91FC91A5
:100710000280F381E02D099480E090E008950C942C
:100720007903DC01ED91FC910190F081E02D0994B9
:100730000F931F93CF93DF93EC016DE00E94910321
:100740008C016AE0CE010E949103800F911FDF911E
:10075000CF911F910F9108950F931F93CF93DF9324
:10076000EC010E9479038C01CE010E949803800F56
:10077000911FDF91CF911F910F9108958F929F92BA
:10078000AF92BF92CF92DF92EF92FF920F931F939F
:10079000CF93DF93CDB7DEB7A1970FB6F894DEBF46
:1007A0000FBECDBF7C01C42EE52FCB01D22E19A2E6
:1007B00021E02D1510F02AE0D22E8E010F5D1F4F83
:1007C0008D2C912CA12CB12C6C2D7E2FA501940188
:1007D0000E94CC088C2DD29E801911240150110941
:1007E0008A3014F4805D01C0895CF8018083211592
:1007F00031054105510521F0C22EE32FCA01E4CF96
:10080000B801C7010E947903A1960FB6F894DEBF24
:100810000FBECDBFDF91CF911F910F91FF90EF9051
:10082000DF90CF90BF90AF909F908F900895CF9220
:10083000DF92EF92FF920F931F93CF93DF93EC0120
:100840006A017B012115310579F4E881F981019074
:10085000F081E02D642FDF91CF911F910F91FF90D8
:10086000EF90DF90CF9009942A303105E9F477FFBB
:100870001AC06DE20E9491038C0144275527BA01EA
:100880004C195D096E097F092AE0CE010E94BE0362
:10089000800F911FDF91CF911F910F91FF90EF90EB
:1008A000DF90CF9008952AE0B701A601CE01DF9135
:1008B000CF911F910F91FF90EF90DF90CF900C940C
:1008C000BE039A01AB01662757FD6095762F0C9405
:1008D0001704FC0124853585F901E05CFF4F808118
:1008E0009181329620813181821B930B8F739927DE
:1008F0000895FC0184859585FC01E05CFF4F4081F3
:1009000051813296208131814217530741F0019085
:10091000F081E02DE80FF91F808190E008958FEFBE
:100920009FEF0895FC0184859585FC01E05CFF4FF5
:10093000408151813296208131814217530779F0ED
:10094000A081B181A80FB91F8C91208131812F5FC7
:100950003F4F2F7333273183208390E008958FEF2B
:100960009FEF0895FC0181A1882329F0A489B5890E
:100970008C9186FFFBCF11A20895CF93DF93FC01EA
:1009800026853785D901A05CBF4F8D919C91119729
:1009900001968F739927E901CE5BDF4F488159811A
:1009A00084179507D9F30D90BC91A02DA20FB31F0A
:1009B0006C93A685B785A05CBF4F11969C938E93D0
:1009C000A689B7892C9181E090E0078C02C0880F3E
:1009D000991F0A94E2F7282B2C9381E081A30488C5
:1009E000F589E02D80818064808381E090E0DF9153
:1009F000CF91089508951F920F920FB60F92112470
:100A00002F933F934F938F939F93EF93FF938091F7
:100A1000C00082FD1CC04091C600809106029091EA
:100A2000070201968F7399272091080230910902DD
:100A30008217930771F0E0910602F0910702EA53E2
:100A4000FE4F4083909307028093060202C080917C
:100A5000C600FF91EF919F918F914F913F912F9100
:100A60000F900FBE0F901F90189580E691E00E94A6
:100A70006904892B11F00C94FA0408951F920F92C7
:100A80000FB60F9211242F933F938F939F93EF9361
:100A9000FF932091C2013091C3018091C4019091D4
:100AA000C5012817390731F48091C1008F7D8093EB
:100AB000C10014C0E091C401F091C501EE57FE4F92
:100AC00020818091C4019091C50101968F7399276F
:100AD0009093C5018093C4012093C600FF91EF91CC
:100AE0009F918F913F912F910F900FBE0F901F906C
:100AF0001895CF92DF92EF92FF92CF93DF93EC01A4
:100B00006A017B01411581EE580761057105F9F015
:100B1000EC89FD8981E090E008A002C0880F991F50
:100B20000A94E2F7808360E079E08DE390E0A7012A
:100B300096010E94CC08215031094109510956956E
:100B4000479537952795211580E1380798F0EC896E
:100B5000FD89108260E874E88EE190E0A7019601BB
:100B60000E94CC08215031094109510956954795F9
:100B700037952795E889F9893083EA89FB892083AD
:100B800019A2EE89FF89408181E090E09C010C8CE4
:100B900002C0220F331F0A94E2F7422B4083EE89F2
:100BA000FF8940819C010D8C02C0220F331F0A94E3
:100BB000E2F7422B4083EE89FF8940819C010E8C35
:100BC00002C0220F331F0A94E2F7422B4083EE89C2
:100BD000FF8920810F8C02C0880F991F0A94E2F7C9
:100BE000809582238083DF91CF91FF90EF90DF90FB
:100BF000CF90089581E008951092630110926201F0
:100C000088EE93E0A0E0B0E08093640190936501EA
:100C1000A0936601B09367018DE191E0909361012B
:100C20008093600186EC91E090936D0180936C015C
:100C300082E891E090936F0180936E0185EC90E0E3
:100C4000909371018093700184EC90E09093730114
:100C50008093720180EC90E0909375018093740111
:100C600081EC90E0909377018093760182EC90E0A4
:100C7000909379018093780186EC90E090937B01CA
:100C800080937A0184E080937C0183E080937D01EE
:100C900087E080937E0185E080937F0181E08093EF
:100CA0008001089580913D0290E020913E02821BD8
:100CB0009109089520913E0280913D02281750F439
:100CC000E22FF0E0E15CFD4F808190E02F5F209308
:100CD0003E0208958FEF9FEF0895E0913E028091CC
:100CE0003D02E81730F4F0E0E15CFD4F808190E0D8
:100CF00008958FEF9FEF08950895E0911602F09107
:100D000017023097E1F030913E0220913D023217F8
:100D1000B0F040E0242F30E02617370754F4DC0110
:100D2000A20FB31F5C91D901A15CBD4F5C934F5FD3
:100D3000F1CF10923E0260933D02CB0109940895D9
:100D4000E0911802F0911902309729F010921C02DC
:100D500010921B0209940895CF92DF92EF92FF92B6
:100D60000F931F93CF93DF937C01CB018A012091D6
:100D70001A02222389F0EB016B01C40ED51ECC159B
:100D8000DD0569F06991D701ED91FC910190F08149
:100D9000E02DC7010995F3CF642F0E945D07C801BC
:100DA000DF91CF911F910F91FF90EF90DF90CF9047
:100DB0000895CF93DF931F92CDB7DEB7698320915B
:100DC0001A022223D1F020911B02203240F021E0B0
:100DD00030E0FC013383228380E090E015C08091F5
:100DE0001C02E82FF0E0E35EFD4F998190838F5F56
:100DF00080931C0280931B0205C061E0CE01019626
:100E00000E945D0781E090E00F90DF91CF910895FF
:100E1000FC011382128248EE53E060E070E04483EC
:100E20005583668377838DE291E091838083089573
:100E300010923E0210923D0210921C0210921B0270
:100E40000C943B07CF93DF93EC01862F0E94590748
:100E500080EA96E00E948A078DE796E00E94850767
:100E6000CE01DF91CF910C9418070C9422078AE0F1
:100E700092E00C9408071092CC0281E08093CA02A1
:100E80001092C90261E082E10E94170261E083E1F1
:100E90000E941702E9EBF0E080818E7F80838081E1
:100EA0008D7F808388E48093B80085E48093BC00C4
:100EB0000895880F8093BA00089540918102262FEB
:100EC00030E0240F311D21323105DCF42091CC02B9
:100ED0002430C9F4FC0180E090E0861758F430918A
:100EE00081022191DC01AD57BD4FA30FB11D2C93A1
:100EF0000196F3CF80918102860F8093810280E07A
:100F0000089581E0089582E008959093C602809349
:100F1000C50208959093C8028093C702089585ED95
:100F20008093BC008091BC0084FDFCCF1092CC0269
:100F3000089585EC8093BC001092CC0208951F9216
:100F40000F920FB60F9211242F933F934F935F93FD
:100F50006F937F938F939F93AF93BF93EF93FF9381
:100F60008091B900887F803609F49EC078F5883278
:100F700009F45DC090F4803109F456C038F4882338
:100F800009F4F5C0883009F44FC0F5C0883109F480
:100F90004EC0803209F45FC0EEC0803409F46AC0EC
:100FA00058F4803309F457C0883309F0E4C08093C3
:100FB0005F020E949907DFC0803509F44FC0883571
:100FC00009F45DC0883409F0D6C0D3C0883909F46B
:100FD000C4C0A8F4883709F467C038F4883609F427
:100FE00063C0803709F460C0C6C0883809F4B5C052
:100FF000803909F45FC0803809F0BDC05BC0803B18
:1010000009F483C038F4803A09F466C0883A09F4D8
:101010007CC0B1C0803C09F4A4C0883C09F4A1C0E4
:10102000883B09F487C0A7C08091CB0210C0909183
:10103000A4028091A302981770F5E091A40281E0C8
:101040008E0F8093A402F0E0EB55FD4F80818093DA
:10105000BB0085EC83C080935F028BC0E091A4024B
:1010600081E08E0F8093A4028091BB00F0E0EB55ED
:10107000FD4F80839091A4028091A3026BC0E09108
:10108000A40281E08E0F8093A4028091BB00F0E067
:10109000EB55FD4F80838091CA0281116AC081E0C7
:1010A0008093C90284EA5EC083E08093CC021092F0
:1010B0006002CFCF80916002803208F04EC0E09194
:1010C000600281E08E0F809360028091BB00F0E0AF
:1010D000EF59FD4F8083BDCF0E9499078091600238
:1010E000803230F4E0916002F0E0EF59FD4F108261
:1010F0006091600270E0E091C502F091C60281E665
:1011000092E009951092600236C084E08093CC0290
:101110001092820210928102E091C702F091C802FF
:10112000099580918102811105C081E0809381023F
:1011300010928302E091820281E08E0F80938202FE
:10114000F0E0ED57FD4F80818093BB0090918202CB
:1011500080918102981708F47CCF85E88093BC00C9
:101160000AC085EC8093BC001092CC0204C010929F
:101170005F020E948F07FF91EF91BF91AF919F9106
:101180008F917F916F915F914F913F912F910F9030
:101190000FBE0F901F901895A1E21A2EAA1BBB1B21
:1011A000FD010DC0AA1FBB1FEE1FFF1FA217B30733
:1011B000E407F50720F0A21BB30BE40BF50B661F49
:1011C000771F881F991F1A9469F76095709580950D
:1011D00090959B01AC01BD01CF010895EE0FFF1F5B
:1011E0000590F491E02D099410E0C8ECD0E004C023
:1011F000FE010E94F0082296CA3CD107C9F7F89474
:02120000FFCF1E
:10120200524541445920544F20574F524B210A0016
:101212005B20002C2000205D0000000000BD045176
:1012220003690492047904B20400000000D906ACF8
:0A1232000652065A066D067C0600FF
:00000001FF
