:100000000C9465000C948D000C948D000C948D0064
:100010000C948D000C948D000C948D000C948D002C
:100020000C948D000C948D000C948D000C948D001C
:100030000C948D000C948D000C948D000C948D000C
:100040000C94F8010C948D000C9495040C94D80435
:100050000C948D000C948D000C948D000C948D00EC
:100060000C9439070C948D00000000070002010079
:100070000003040600000000000000000102040864
:100080001020408001020408102001020408102002
:10009000040404040404040402020202020203032E
:1000A00003030303000000002300260029000000D2
:1000B0000000250028002B0000000000240027007D
:1000C0002A00DF009605D106E90011241FBECFEFFC
:1000D000D8E0DEBFCDBF11E0A0E0B1E0E6E3F1E1A2
:1000E00002C005900D92A233B107D9F722E0A2E336
:1000F000B1E001C01D92A03CB207E1F710E0C8ECEE
:10010000D0E004C02297FE010E948A08C23CD107B9
:10011000C9F70E94C6020C948E080C9400006CE291
:1001200071E080E090E00C946502CF93DF9382E36E
:1001300091E00E941601C0E0D0E082E391E00E94CD
:1001400033018C0F9D1FFC01608171814AE050E0FA
:1001500083E591E00E94E30360E071E083E591E0D4
:100160000E9411032296C031D10539F782E391E054
:100170000E9436014AE050E0BC0183E591E0DF9146
:10018000CF910C94EB0364E070E08DEF91E00E945E
:10019000CF0640E855E260E070E083E591E00E9420
:1001A000130583E591E00E9494058823D1F362E072
:1001B00071E083E591E00E942E030C94950021E00C
:1001C00030E040E050E062E070E082E391E00C94C7
:1001D000ED0082E391E00C940101822F209349010C
:1001E000609348014093470161E00E94600160E034
:1001F000809148010E94600161E0809147010C9468
:100200006001089561E0809147010E94990160E0DA
:10021000809147010C94990161E0809149010E940D
:10022000990160E0809149010C9499010F931F930B
:10023000CF93DF938C010E940C01C3E3D1E0809146
:1002400048010E94CF0189939993C8010E9402013D
:1002500081E0C534D80799F783E391E0DF91CF912E
:100260001F910F91089583E391E0089508958330DD
:1002700081F028F4813099F08230A1F00895863021
:10028000A9F08730B9F08430D1F4809180008F7D5F
:1002900003C0809180008F7780938000089584B59B
:1002A0008F7702C084B58F7D84BD08958091B000A2
:1002B0008F7703C08091B0008F7D8093B000089548
:1002C000CF93DF9390E0FC01E458FF4F2491FC01B1
:1002D000E057FF4F8491882349F190E0880F991FE0
:1002E000FC01E854FF4FA591B49182559F4FFC014A
:1002F000C591D4919FB7611108C0F8948C91209555
:1003000082238C93888182230AC0623051F4F8944E
:100310008C91322F309583238C938881822B888314
:1003200004C0F8948C91822B8C939FBFDF91CF9166
:1003300008950F931F93CF93DF931F92CDB7DEB72E
:10034000282F30E0F901E859FF4F8491F901E45872
:10035000FF4F1491F901E057FF4F04910023C9F0BA
:10036000882321F069830E9437016981E02FF0E042
:10037000EE0FFF1FE255FF4FA591B4919FB7F89480
:100380008C91611103C01095812301C0812B8C9346
:100390009FBF0F90DF91CF911F910F910895CF9341
:1003A000DF93282F30E0F901E859FF4F8491F901DC
:1003B000E458FF4FD491F901E057FF4FC491CC238B
:1003C00091F081110E943701EC2FF0E0EE0FFF1F3A
:1003D000EC55FF4FA591B4912C912D2381E090E035
:1003E00021F480E002C080E090E0DF91CF91089599
:1003F0001F920F920FB60F9211242F933F938F935A
:100400009F93AF93BF9380914B0190914C01A0912A
:100410004D01B0914E0130914A0123E0230F2D3759
:1004200020F40196A11DB11D05C026E8230F0296F8
:10043000A11DB11D20934A0180934B0190934C0163
:10044000A0934D01B0934E0180914F0190915001C6
:10045000A0915101B09152010196A11DB11D80934F
:100460004F0190935001A0935101B0935201BF915D
:10047000AF919F918F913F912F910F900FBE0F9051
:100480001F9018953FB7F89480914F0190915001BB
:10049000A0915101B091520126B5A89B05C02F3FF4
:1004A00019F00196A11DB11D3FBF6627782F892F36
:1004B0009A2F620F711D811D911D42E0660F771FFB
:1004C000881F991F4A95D1F70895CF92DF92EF9236
:1004D000FF92CF93DF936B017C010E944202EB01FC
:1004E000C114D104E104F10479F00E9442026C1BB2
:1004F0007D0B683E7340A0F381E0C81AD108E10883
:10050000F108C851DC4FECCFDF91CF91FF90EF9015
:10051000DF90CF900895789484B5826084BD84B5CF
:10052000816084BD85B5826085BD85B5816085BDEE
:10053000EEE6F0E0808181608083E1E8F0E0108207
:10054000808182608083808181608083E0E8F0E048
:10055000808181608083E1EBF0E080818460808332
:10056000E0EBF0E0808181608083EAE7F0E0808169
:1005700084608083808182608083808181608083C9
:100580008081806880831092C10008950E948B0250
:100590000E94C300CFECD4E00E948F002097E1F3CB
:1005A0000E94CF04F9CFCF92DF92EF92FF920F9388
:1005B0001F93CF93DF936C017A01EB01E60EF71ED8
:1005C00000E010E0CE15DF0561F06991D601ED91F4
:1005D000FC910190F081E02DC6010995080F191FCB
:1005E000F1CFC801DF91CF911F910F91FF90EF9054
:1005F000DF90CF9008956115710581F0DB010D90BA
:100600000020E9F7AD0141505109461B570BDC01B1
:10061000ED91FC910280F381E02D099480E090E05F
:1006200008950C94FB02DC01ED91FC910190F081A6
:10063000E02D09940F931F93CF93DF93EC016DE0AE
:100640000E9413038C016AE0CE010E941303800F05
:10065000911FDF91CF911F910F9108950F931F93D9
:10066000CF93DF93EC010E94FB028C01CE010E942C
:100670001A03800F911FDF91CF911F910F91089561
:100680008F929F92AF92BF92CF92DF92EF92FF92A2
:100690000F931F93CF93DF93CDB7DEB7A1970FB61C
:1006A000F894DEBF0FBECDBF7C01C42EE52FCB0179
:1006B000D22E19A221E02D1510F02AE0D22E8E01A3
:1006C0000F5D1F4F8D2C912CA12CB12C6C2D7E2FEA
:1006D000A50194010E9466088C2DD29E80191124D8
:1006E000015011098A3014F4805D01C0895CF80161
:1006F0008083211531054105510521F0C22EE32FDC
:10070000CA01E4CFB801C7010E94FB02A1960FB64F
:10071000F894DEBF0FBECDBFDF91CF911F910F9137
:10072000FF90EF90DF90CF90BF90AF909F908F9011
:100730000895CF92DF92EF92FF920F931F93CF9382
:10074000DF93EC016A017B012115310579F4E88121
:10075000F9810190F081E02D642FDF91CF911F91FD
:100760000F91FF90EF90DF90CF9009942A303105E0
:10077000E9F477FF1AC06DE20E9413038C0144274D
:100780005527BA014C195D096E097F092AE0CE018F
:100790000E944003800F911FDF91CF911F910F9115
:1007A000FF90EF90DF90CF9008952AE0B701A60167
:1007B000CE01DF91CF911F910F91FF90EF90DF90CD
:1007C000CF900C9440039A01AB01662757FD6095CA
:1007D000762F0C9499030F931F93CF93DF93EC0123
:1007E0009A01AB01662757FD6095762F0E94990309
:1007F0008C01CE010E941A03800F911FDF91CF91CF
:100800001F910F910895FC0124853585F901E05C65
:10081000FF4F80819181329620813181821B930B21
:100820008F7399270895FC0184859585FC01E05C10
:10083000FF4F408151813296208131814217530709
:1008400041F00190F081E02DE80FF91F808190E0E8
:1008500008958FEF9FEF0895FC0184859585FC0135
:10086000E05CFF4F408151813296208131814217F7
:10087000530779F0A081B181A80FB91F8C91208115
:1008800031812F5F3F4F2F7333273183208390E0D7
:1008900008958FEF9FEF0895FC0181A1882329F02F
:1008A000A489B5898C9186FFFBCF11A20895CF93BF
:1008B000DF93FC0126853785D901A05CBF4F8D9160
:1008C0009C91119701968F739927E901CE5BDF4FB9
:1008D0004881598184179507D9F30D90BC91A02DBB
:1008E000A20FB31F6C93A685B785A05CBF4F11966E
:1008F0009C938E93A689B7892C9181E090E0078C18
:1009000002C0880F991F0A94E2F7282B2C9381E0EC
:1009100081A30488F589E02D80818064808381E053
:1009200090E0DF91CF91089508951F920F920FB636
:100930000F9211242F933F934F938F939F93EF9395
:10094000FF938091C00082FD1CC04091C600809141
:10095000F9019091FA0101968F7399272091FB017B
:100960003091FC018217930771F0E091F901F09149
:10097000FA01E754FE4F40839093FA018093F90106
:1009800002C08091C600FF91EF919F918F914F918E
:100990003F912F910F900FBE0F901F90189583E5F8
:1009A00091E00E940304892B11F00C9494040895A3
:1009B0001F920F920FB60F9211242F933F938F9394
:1009C0009F93EF93FF932091B5013091B6018091F1
:1009D000B7019091B8012817390731F48091C1000F
:1009E0008F7D8093C10014C0E091B701F091B801F0
:1009F000EB58FE4F20818091B7019091B80101968C
:100A00008F7399279093B8018093B7012093C60004
:100A1000FF91EF919F918F913F912F910F900FBE7A
:100A20000F901F901895CF92DF92EF92FF92CF9385
:100A3000DF93EC016A017B01411581EE58076105E6
:100A40007105F9F0EC89FD8981E090E008A002C011
:100A5000880F991F0A94E2F7808360E079E08DE3C4
:100A600090E0A70196010E946608215031094109D2
:100A700051095695479537952795211580E13807F7
:100A800098F0EC89FD89108260E874E88EE190E0CE
:100A9000A70196010E9466082150310941095109B8
:100AA0005695479537952795E889F9893083EA89DE
:100AB000FB89208319A2EE89FF89408181E090E0C3
:100AC0009C010C8C02C0220F331F0A94E2F7422BC8
:100AD0004083EE89FF8940819C010D8C02C0220F6A
:100AE000331F0A94E2F7422B4083EE89FF8940814D
:100AF0009C010E8C02C0220F331F0A94E2F7422B96
:100B00004083EE89FF8920810F8C02C0880F991FD6
:100B10000A94E2F7809582238083DF91CF91FF9042
:100B2000EF90DF90CF90089581E0089510925601E4
:100B30001092550188EE93E0A0E0B0E08093570159
:100B400090935801A0935901B0935A0186E191E026
:100B5000909354018093530189EB91E0909360014D
:100B600080935F0185E791E090936201809361013A
:100B700085EC90E0909364018093630184EC90E0B5
:100B8000909366018093650180EC90E090936801FA
:100B90008093670181EC90E090936A0180936901F2
:100BA00082EC90E090936C0180936B0186EC90E076
:100BB00090936E0180936D0184E080936F0183E0D8
:100BC0008093700187E08093710185E080937201CA
:100BD00081E08093730108958091300290E020912C
:100BE0003102821B910908952091310280913002D7
:100BF000281750F4E22FF0E0EE5CFD4F808190E08A
:100C00002F5F2093310208958FEF9FEF0895E091B9
:100C1000310280913002E81730F4F0E0EE5CFD4FD5
:100C2000808190E008958FEF9FEF08950895E091FF
:100C30000902F0910A023097E1F0309131022091DF
:100C400030023217B0F040E0242F30E0261737078B
:100C500054F4DC01A20FB31F5C91D901AE5CBD4F0F
:100C60005C934F5FF1CF1092310260933002CB0161
:100C700009940895E0910B02F0910C02309729F04D
:100C800010920F0210920E0209940895CF92DF92F3
:100C9000EF92FF920F931F93CF93DF937C01CB01D1
:100CA0008A0120910D02222389F0EB016B01C40E11
:100CB000D51ECC15DD0569F06991D701ED91FC9148
:100CC0000190F081E02DC7010995F3CF642F0E94B8
:100CD000F706C801DF91CF911F910F91FF90EF9020
:100CE000DF90CF900895CF93DF931F92CDB7DEB7FB
:100CF000698320910D022223D1F020910E0220322F
:100D000040F021E030E0FC013383228380E090E07A
:100D100015C080910F02E82FF0E0E05FFD4F998150
:100D200090838F5F80930F0280930E0205C061E075
:100D3000CE0101960E94F70681E090E00F90DF91CE
:100D4000CF910895FC011382128248EE53E060E0D7
:100D500070E0448355836683778386E291E09183D4
:100D600080830895109231021092300210920F0287
:100D700010920E020C94D506CF93DF93EC01862FD0
:100D80000E94F3068AE396E00E94240787E196E03A
:100D90000E941F07CE01DF91CF910C94B2060C94F4
:100DA000BC068DEF91E00C94A2061092BF0281E088
:100DB0008093BD021092BC0261E082E10E94990121
:100DC00061E083E10E949901E9EBF0E080818E7F90
:100DD000808380818D7F808388E48093B80085E460
:100DE0008093BC000895880F8093BA0008954091C5
:100DF0007402262F30E0240F311D21323105DCF43E
:100E00002091BF022430C9F4FC0180E090E08617F5
:100E100058F4309174022191DC01AA58BD4FA30F00
:100E2000B11D2C930196F3CF80917402860F8093AD
:100E3000740280E0089581E0089582E0089590931F
:100E4000B9028093B80208959093BB028093BA02CE
:100E5000089585ED8093BC008091BC0084FDFCCF9B
:100E60001092BF02089585EC8093BC001092BF02DF
:100E700008951F920F920FB60F9211242F933F9354
:100E80004F935F936F937F938F939F93AF93BF9392
:100E9000EF93FF938091B900887F803609F49EC05C
:100EA00078F5883209F45DC090F4803109F456C0B9
:100EB00038F4882309F4F5C0883009F44FC0F5C030
:100EC000883109F44EC0803209F45FC0EEC080342E
:100ED00009F46AC058F4803309F457C0883309F024
:100EE000E4C0809352020E943307DFC0803509F4CA
:100EF0004FC0883509F45DC0883409F0D6C0D3C02E
:100F0000883909F4C4C0A8F4883709F467C038F4F4
:100F1000883609F463C0803709F460C0C6C08838D9
:100F200009F4B5C0803909F45FC0803809F0BDC04C
:100F30005BC0803B09F483C038F4803A09F466C092
:100F4000883A09F47CC0B1C0803C09F4A4C0883C54
:100F500009F4A1C0883B09F487C0A7C08091BE02F4
:100F600010C09091970280919602981770F5E091C9
:100F7000970281E08E0F80939702F0E0E856FD4FD4
:100F800080818093BB0085EC83C0809352028BC02C
:100F9000E091970281E08E0F809397028091BB00D1
:100FA000F0E0E856FD4F8083909197028091960281
:100FB0006BC0E091970281E08E0F80939702809141
:100FC000BB00F0E0E856FD4F80838091BD028111A7
:100FD0006AC081E08093BC0284EA5EC083E08093B3
:100FE000BF0210925302CFCF80915302803208F09B
:100FF0004EC0E091530281E08E0F809353028091A6
:10100000BB00F0E0EC5AFD4F8083BDCF0E94330758
:1010100080915302803230F4E0915302F0E0EC5AB8
:10102000FD4F10826091530270E0E091B802F091A0
:10103000B90284E592E009951092530236C084E02B
:101040008093BF021092750210927402E091BA026E
:10105000F091BB02099580917402811105C081E075
:101060008093740210927602E091750281E08E0FF7
:1010700080937502F0E0EA58FD4F80818093BB00B9
:101080009091750280917402981708F47CCF85E8DE
:101090008093BC000AC085EC8093BC001092BF0214
:1010A00004C0109252020E942907FF91EF91BF9154
:1010B000AF919F918F917F916F915F914F913F91F0
:1010C0002F910F900FBE0F901F901895A1E21A2E2E
:1010D000AA1BBB1BFD010DC0AA1FBB1FEE1FFF1FDC
:1010E000A217B307E407F50720F0A21BB30BE40B2C
:1010F000F50B661F771F881F991F1A9469F7609573
:101100007095809590959B01AC01BD01CF0108952C
:10111000EE0FFF1F0590F491E02D099410E0C8EC4C
:10112000D0E004C0FE010E948A082296CA3CD10782
:06113000C9F7F894FFCF9F
:101136002000524541445920544F20424547494ECC
:101146002100000000005704D30203042C041304FA
:101156004C040000000073064606EC05F40507067D
:0211660016066B
:00000001FF
