:100000000C9464000C948C000C948C000C948C0068
:100010000C948C000C948C000C948C000C948C0030
:100020000C948C000C948C000C948C000C948C0020
:100030000C948C000C948C000C948C000C948C0010
:100040000C94FD010C948C000C9482040C94C50457
:100050000C948C000C948C000C948C000C948C00F0
:100060000C948C000C948C0000000007000201002E
:100070000003040600000000000000000102040864
:100080001020408001020408102001020408102002
:10009000040404040404040402020202020203032E
:1000A00003030303000000002300260029000000D2
:1000B0000000250028002B0000000000240027007D
:1000C0002A00E8008305F20011241FBECFEFD8E01C
:1000D000DEBFCDBF11E0A0E0B1E0ECE1FCE002C08A
:1000E00005900D92A232B107D9F721E0A2E2B1E06A
:1000F00001C01D92AD3EB207E1F710E0C6ECD0E0C2
:1001000004C02297FE010E94FD05C23CD107C9F739
:100110000E94CB020C9401060C94000061E08DE07B
:100120000E94650161E08DE00E949E0140E855E279
:1001300060E070E083E491E00E94000583E491E0D8
:100140000E9481058823D1F360E071E083E491E0AF
:100150000E94330360ED77E080E090E00C946A0247
:100160000F931F93CF93DF9382E291E00E941F01D0
:10017000D82FC92F69E071E083E491E00E94160353
:100180000D2F1C2FC0E0D0E0F801619171918F011B
:100190004AE050E083E491E00E94E803C730D105D3
:1001A00019F06CE071E002C06FE071E083E491E06F
:1001B0000E9416032196C830D10531F783E491E0FF
:1001C000DF91CF911F910F910C941F030C94B000FD
:1001D00026E030E045E050E067E070E082E291E048
:1001E0000C94F60082E291E00C940A01822F209395
:1001F0003901609338014093370161E00E94650145
:1002000060E0809138010E94650161E080913701D2
:100210000C946501089561E0809137010E949E0170
:1002200060E0809137010C949E0161E0809139017A
:100230000E949E0160E0809139010C949E010F9311
:100240001F93CF93DF938C010E941501C3E2D1E08D
:10025000809138010E94D40189939993C8010E942A
:100260000B0181E0C533D80799F783E291E0DF9174
:10027000CF911F910F910895833081F028F4813040
:1002800099F08230A1F008958630A9F08730B9F056
:100290008430D1F4809180008F7D03C080918000F4
:1002A0008F7780938000089584B58F7702C084B5DE
:1002B0008F7D84BD08958091B0008F7703C08091B9
:1002C000B0008F7D8093B0000895CF93DF9390E0CE
:1002D000FC01E458FF4F2491FC01E057FF4F84914B
:1002E000882349F190E0880F991FFC01E854FF4FE3
:1002F000A591B49182559F4FFC01C591D4919FB7B0
:10030000611108C0F8948C91209582238C93888188
:1003100082230AC0623051F4F8948C91322F3095C8
:1003200083238C938881822B888304C0F8948C91DA
:10033000822B8C939FBFDF91CF9108950F931F93D2
:10034000CF93DF931F92CDB7DEB7282F30E0F901AE
:10035000E859FF4F8491F901E458FF4F1491F901D6
:10036000E057FF4F04910023C9F0882321F06983EF
:100370000E943C016981E02FF0E0EE0FFF1FE25583
:10038000FF4FA591B4919FB7F8948C91611103C070
:100390001095812301C0812B8C939FBF0F90DF911B
:1003A000CF911F910F910895CF93DF93282F30E0C5
:1003B000F901E859FF4F8491F901E458FF4FD491B6
:1003C000F901E057FF4FC491CC2391F081110E94B5
:1003D0003C01EC2FF0E0EE0FFF1FEC55FF4FA59115
:1003E000B4912C912D2381E090E021F480E002C0B3
:1003F00080E090E0DF91CF9108951F920F920FB6A9
:100400000F9211242F933F938F939F93AF93BF939A
:1004100080913B0190913C01A0913D01B0913E0142
:1004200030913A0123E0230F2D3720F40196A11DCE
:10043000B11D05C026E8230F0296A11DB11D209312
:100440003A0180933B0190933C01A0933D01B0930E
:100450003E0180913F0190914001A0914101B091F6
:1004600042010196A11DB11D80933F01909340016F
:10047000A0934101B0934201BF91AF919F918F91A1
:100480003F912F910F900FBE0F901F9018953FB77F
:10049000F89480913F0190914001A0914101B09169
:1004A000420126B5A89B05C02F3F19F00196A11D5A
:1004B000B11D3FBF6627782F892F9A2F620F711DBC
:1004C000811D911D42E0660F771F881F991F4A9575
:1004D000D1F70895CF92DF92EF92FF92CF93DF93FF
:1004E0006B017C010E944702EB01C114D104E104BD
:1004F000F10479F00E9447026C1B7D0B683E73404B
:10050000A0F381E0C81AD108E108F108C851DC4F16
:10051000ECCFDF91CF91FF90EF90DF90CF900895D7
:10052000789484B5826084BD84B5816084BD85B5CE
:10053000826085BD85B5816085BDEEE6F0E0808195
:1005400081608083E1E8F0E01082808182608083B6
:10055000808181608083E0E8F0E080818160808339
:10056000E1EBF0E0808184608083E0EBF0E080816B
:1005700081608083EAE7F0E080818460808380810D
:1005800082608083808181608083808180688083B5
:100590001092C10008950E9490020E948E00CCEB40
:1005A000D4E00E94E6002097E1F30E94BC04F9CF5A
:1005B000CF92DF92EF92FF920F931F93CF93DF932F
:1005C0006C017A01EB01E60EF71E00E010E0CE159B
:1005D000DF0561F06991D601ED91FC910190F08108
:1005E000E02DC6010995080F191FF1CFC801DF9151
:1005F000CF911F910F91FF90EF90DF90CF900895D2
:100600006115710581F0DB010D900020E9F7AD0166
:1006100041505109461B570BDC01ED91FC910280C2
:10062000F381E02D099480E090E008950C9400039C
:10063000DC01ED91FC910190F081E02D09940F9384
:100640001F93CF93DF93EC016DE00E9418038C01A0
:100650006AE0CE010E941803800F911FDF91CF91B5
:100660001F910F9108950F931F93CF93DF93EC0188
:100670000E9400038C01CE010E941F03800F911F76
:10068000DF91CF911F910F9108958F929F92AF921A
:10069000BF92CF92DF92EF92FF920F931F93CF936F
:1006A000DF93CDB7DEB7A1970FB6F894DEBF0FBECC
:1006B000CDBF7C01C42EE52FCB01D22E19A221E0A3
:1006C0002D1510F02AE0D22E8E010F5D1F4F8D2CBC
:1006D000912CA12CB12C6C2D7E2FA50194010E9490
:1006E000D9058C2DD29E80191124015011098A3010
:1006F00014F4805D01C0895CF80180832115310507
:100700004105510521F0C22EE32FCA01E4CFB80103
:10071000C7010E940003A1960FB6F894DEBF0FBE7A
:10072000CDBFDF91CF911F910F91FF90EF90DF90A0
:10073000CF90BF90AF909F908F900895CF92DF920F
:10074000EF92FF920F931F93CF93DF93EC016A0117
:100750007B012115310579F4E881F9810190F0815F
:10076000E02D642FDF91CF911F910F91FF90EF90BB
:10077000DF90CF9009942A303105E9F477FF1AC051
:100780006DE20E9418038C0144275527BA014C19C9
:100790005D096E097F092AE0CE010E944503800FA2
:1007A000911FDF91CF911F910F91FF90EF90DF90FC
:1007B000CF9008952AE0B701A601CE01DF91CF9135
:1007C0001F910F91FF90EF90DF90CF900C94450315
:1007D0009A01AB01662757FD6095762F0C949E0316
:1007E000FC0124853585F901E05CFF4F8081918112
:1007F000329620813181821B930B8F739927089544
:10080000FC0184859585FC01E05CFF4F40815181AE
:100810003296208131814217530741F00190F081D7
:10082000E02DE80FF91F808190E008958FEF9FEF92
:100830000895FC0184859585FC01E05CFF4F4081B3
:1008400051813296208131814217530779F0A0817E
:10085000B181A80FB91F8C91208131812F5F3F4F4B
:100860002F7333273183208390E008958FEF9FEF1C
:100870000895FC0181A1882329F0A489B5898C9170
:1008800086FFFBCF11A20895CF93DF93FC0126854D
:100890003785D901A05CBF4F8D919C91119701962E
:1008A0008F739927E901CE5BDF4F48815981841707
:1008B0009507D9F30D90BC91A02DA20FB31F6C9397
:1008C000A685B785A05CBF4F11969C938E93A68991
:1008D000B7892C9181E090E0078C02C0880F991FA6
:1008E0000A94E2F7282B2C9381E081A30488F589F0
:1008F000E02D80818064808381E090E0DF91CF9162
:10090000089508951F920F920FB60F9211242F93FE
:100910003F934F938F939F93EF93FF938091C000EA
:1009200082FD1CC04091C6008091E9019091EA01CE
:1009300001968F7399272091EB013091EC0182177A
:10094000930771F0E091E901F091EA01E755FE4F5C
:1009500040839093EA018093E90102C08091C60030
:10096000FF91EF919F918F914F913F912F910F9018
:100970000FBE0F901F90189583E491E00E94F00342
:10098000892B11F00C94810408951F920F920FB6D9
:100990000F9211242F933F938F939F93EF93FF9385
:1009A0002091A5013091A6018091A7019091A80105
:1009B0002817390731F48091C1008F7D8093C100E1
:1009C00014C0E091A701F091A801EB59FE4F2081DE
:1009D0008091A7019091A80101968F739927909318
:1009E000A8018093A7012093C600FF91EF919F91EA
:1009F0008F913F912F910F900FBE0F901F901895E0
:100A0000CF92DF92EF92FF92CF93DF93EC016A01D6
:100A10007B01411581EE580761057105F9F0EC89FC
:100A2000FD8981E090E008A002C0880F991F0A9418
:100A3000E2F7808360E079E08DE390E0A701960122
:100A40000E94D90521503109410951095695479510
:100A500037952795211580E1380798F0EC89FD89B5
:100A6000108260E874E88EE190E0A70196010E9490
:100A7000D9052150310941095109569547953795B6
:100A80002795E889F9893083EA89FB89208319A2AF
:100A9000EE89FF89408181E090E09C010C8C02C0CE
:100AA000220F331F0A94E2F7422B4083EE89FF891D
:100AB00040819C010D8C02C0220F331F0A94E2F783
:100AC000422B4083EE89FF8940819C010E8C02C03D
:100AD000220F331F0A94E2F7422B4083EE89FF89ED
:100AE00020810F8C02C0880F991F0A94E2F780952D
:100AF00082238083DF91CF91FF90EF90DF90CF90A2
:100B0000089581E00895109246011092450188EE03
:100B100093E0A0E0B0E08093470190934801A09358
:100B20004901B0934A0186E191E09093440180939A
:100B3000430189EA91E09093500180934F0185E64B
:100B400091E0909352018093510185EC90E0909355
:100B500054018093530184EC90E09093560180936C
:100B6000550180EC90E0909358018093570181ECFF
:100B700090E090935A018093590182EC90E0909319
:100B80005C0180935B0186EC90E090935E01809322
:100B90005D0184E080935F0183E08093600187E0E2
:100BA0008093610185E08093620181E0809363011D
:100BB0000895A1E21A2EAA1BBB1BFD010DC0AA1F9E
:100BC000BB1FEE1FFF1FA217B307E407F50720F0B6
:100BD000A21BB30BE40BF50B661F771F881F991F31
:100BE0001A9469F760957095809590959B01AC017A
:100BF000BD01CF010895EE0FFF1F0590F491E02D88
:100C0000099410E0C6ECD0E004C0FE010E94FD058E
:0C0C10002296C83CD107C9F7F894FFCF2A
:100C1C005245414459210A0A005B20002C20002037
:100C2C005D00000000004404D802F0031904000425
:020C3C00390479
:00000001FF
