:100000000C9459000C9481000C9481000C94810094
:100010000C9481000C9481000C9481000C9481005C
:100020000C9481000C9481000C9481000C9481004C
:100030000C9481000C9481000C9481000C9481003C
:100040000C9400040C9481000C94B6010C94F901FA
:100050000C9481000C9481000C9481000C9481001C
:100060000C94E9040C9481000000000700020100D8
:100070000003040600000000000000000102040864
:100080001020408001020408102001020408102002
:10009000040404040404040402020202020203032E
:1000A0000303030300000000250028002B00B70213
:1000B000FC0311241FBECFEFD8E0DEBFCDBF11E09F
:1000C000A0E0B1E0EEE3FDE002C005900D92A632A3
:1000D000B107D9F722E0A6E2B1E001C01D92AC3928
:1000E000B207E1F710E0C2EBD0E004C02297FE01B6
:1000F0000E949906CE3AD107C9F70E94AC000C9431
:100100009D060C9400000895089565E070E080ED70
:1001100091E00E94F00340E855E260E070E086E282
:1001200091E00E94340286E291E00E94B5028823A9
:10013000D1F360E071E086E291E00E94120163E891
:1001400070E080ED91E00E94F70364E870E080EDDC
:1001500091E00C94F20308950E944A040E948500E5
:10016000C0EFD1E00E94AB002097E1F30E94F001C4
:10017000F9CFCF92DF92EF92FF920F931F93CF931D
:10018000DF936C017A01EB01E60EF71E00E010E050
:10019000CE15DF0561F06991D601ED91FC910190DA
:1001A000F081E02DC6010995080F191FF1CFC80194
:1001B000DF91CF911F910F91FF90EF90DF90CF9043
:1001C00008956115710581F0DB010D900020E9F7BC
:1001D000AD0141505109461B570BDC01ED91FC91DB
:1001E0000280F381E02D099480E090E00895DC0125
:1001F000ED91FC910190F081E02D09940F931F93F4
:10020000CF93DF93EC016DE00E94F7008C016AE070
:10021000CE010E94F700800F911FDF91CF911F91B7
:100220000F9108950F931F93CF93DF93EC010E94DA
:10023000E1008C01CE010E94FE00800F911FDF9132
:10024000CF911F910F910895FC0124853585F90107
:10025000E05CFF4F80819181329620813181821B49
:10026000930B8F7399270895FC0184859585FC0174
:10027000E05CFF4F408151813296208131814217ED
:10028000530741F00190F081E02DE80FF91F8081C4
:1002900090E008958FEF9FEF0895FC018485958588
:1002A000FC01E05CFF4F4081518132962081318119
:1002B0004217530779F0A081B181A80FB91F8C9123
:1002C000208131812F5F3F4F2F733327318320836C
:1002D00090E008958FEF9FEF0895FC0181A188239E
:1002E00029F0A489B5898C9186FFFBCF11A20895CE
:1002F000CF93DF93FC0126853785D901A05CBF4FE2
:100300008D919C91119701968F739927E901CE5B8E
:10031000DF4F4881598184179507D9F30D90BC911F
:10032000A02DA20FB31F6C93A685B785A05CBF4F0D
:1003300011969C938E93A689B7892C9181E090E0C9
:10034000078C02C0880F991F0A94E2F7282B2C9380
:1003500081E081A30488F589E02D80818064808319
:1003600081E090E0DF91CF91089508951F920F9260
:100370000FB60F9211242F933F934F938F939F9318
:10038000EF93FF938091C00082FD1CC04091C60096
:100390008091CC019091CD0101968F739927209186
:1003A000CE013091CF018217930771F0E091CC011B
:1003B000F091CD01E457FE4F40839093CD0180939F
:1003C000CC0102C08091C600FF91EF919F918F9167
:1003D0004F913F912F910F900FBE0F901F90189546
:1003E00086E291E00E942401892B11F00C94B50162
:1003F00008951F920F920FB60F9211242F933F93DF
:100400008F939F93EF93FF932091880130918901FF
:1004100080918A0190918B012817390731F48091DE
:10042000C1008F7D8093C10014C0E0918A01F091DA
:100430008B01E85BFE4F208180918A0190918B01B6
:1004400001968F73992790938B0180938A01209353
:10045000C600FF91EF919F918F913F912F910F9047
:100460000FBE0F901F901895CF92DF92EF92FF92E0
:10047000CF93DF93EC016A017B01411581EE5807B0
:1004800061057105F9F0EC89FD8981E090E008A033
:1004900002C0880F991F0A94E2F7808360E079E038
:1004A0008DE390E0A70196010E9475062150310965
:1004B000410951095695479537952795211580E1B2
:1004C000380798F0EC89FD89108260E874E88EE1C5
:1004D00090E0A70196010E9475062150310941095B
:1004E00051095695479537952795E889F9893083BD
:1004F000EA89FB89208319A2EE89FF89408181E086
:1005000090E09C010C8C02C0220F331F0A94E2F78A
:10051000422B4083EE89FF8940819C010D8C02C0F3
:10052000220F331F0A94E2F7422B4083EE89FF89A2
:1005300040819C010E8C02C0220F331F0A94E2F707
:10054000422B4083EE89FF8920810F8C02C0880FE7
:10055000991F0A94E2F7809582238083DF91CF91DF
:10056000FF90EF90DF90CF90089581E00895109272
:1005700029011092280188EE93E0A0E0B0E080937A
:100580002A0190932B01A0932C01B0932D018AE0B6
:1005900091E090932701809326018CE891E090935D
:1005A00033018093320188E491E090933501809388
:1005B000340185EC90E0909337018093360184EC10
:1005C00090E0909339018093380180EC90E0909313
:1005D0003B0180933A0181EC90E090933D01809340
:1005E0003C0182EC90E090933F0180933E0186ECC9
:1005F00090E0909341018093400184E08093420118
:1006000083E08093430187E08093440185E08093F9
:10061000450181E08093460108958091030290E0B6
:1006200020910402821B9109089520910402809177
:100630000302281750F4E22FF0E0EB5FFD4F8081BA
:1006400090E02F5F2093040208958FEF9FEF0895AD
:10065000E091040280910302E81730F4F0E0EB5FD0
:10066000FD4F808190E008958FEF9FEF08950895EA
:10067000E091DC01F091DD013097E1F0309104026E
:10068000209103023217B0F040E0242F30E026170B
:10069000370754F4DC01A20FB31F5C91D901AB5FA3
:1006A000BD4F5C934F5FF1CF109204026093030241
:1006B000CB0109940895E091DE01F091DF013097BC
:1006C00029F01092E2011092E10109940895CF926D
:1006D000DF92EF92FF920F931F93CF93DF937C01F2
:1006E000CB018A012091E001222389F0EB016B010B
:1006F000C40ED51ECC15DD0569F06991D701ED91C9
:10070000FC910190F081E02DC7010995F3CF642F92
:100710000E94A704C801DF91CF911F910F91FF9014
:10072000EF90DF90CF900895CF93DF931F92CDB7D6
:10073000DEB769832091E0012223D1F02091E1010D
:10074000203240F021E030E0FC013383228380E05E
:1007500090E015C08091E201E82FF0E0ED51FE4FEE
:10076000998190838F5F8093E2018093E10105C0BE
:1007700061E0CE0101960E94A70481E090E00F9015
:10078000DF91CF910895FC011382128248EE53E06D
:1007900060E070E044835583668377838AE191E06B
:1007A00091838083089510920402109203021092A4
:1007B000E2011092E1010C948504CF93DF93EC01E8
:1007C000862F0E94A3048BE593E00E94D40488E363
:1007D00093E00E94CF04CE01DF91CF910C94D3031C
:1007E0000C94DD037093DD016093DC010895709338
:1007F000DF016093DE01089580ED91E00C94C30366
:100800001F920F920FB60F9211242F933F938F9345
:100810009F93AF93BF938091260290912702A0915E
:100820002802B09129023091250223E0230F2D37B1
:1008300020F40196A11DB11D05C026E8230F0296E4
:10084000A11DB11D209325028093260290932702BB
:10085000A0932802B093290280912A0290912B0242
:10086000A0912C02B0912D020196A11DB11D809383
:100870002A0290932B02A0932C02B0932D02BF91D9
:10088000AF919F918F913F912F910F900FBE0F903D
:100890001F901895789484B5826084BD84B581607A
:1008A00084BD85B5826085BD85B5816085BDEEE678
:1008B000F0E0808181608083E1E8F0E01082808157
:1008C00082608083808181608083E0E8F0E08081C5
:1008D00081608083E1EBF0E0808184608083E0EBE5
:1008E000F0E0808181608083EAE7F0E080818460CD
:1008F0008083808182608083808181608083808129
:10090000806880831092C100089510929B0281E05C
:10091000809399021092980261E082E10E943F0662
:1009200061E083E10E943F06E9EBF0E080818E7F89
:10093000808380818D7F808388E48093B80085E404
:100940008093BC000895880F8093BA000895409169
:100950005002262F30E0240F311D21323105DCF406
:1009600020919B022430C9F4FC0180E090E08617BE
:1009700058F4309150022191DC01AE5ABD4FA30FC3
:10098000B11D2C930196F3CF80915002860F809376
:10099000500280E0089581E0089582E008959093E8
:1009A0009502809394020895909397028093960203
:1009B000089585ED8093BC008091BC0084FDFCCF40
:1009C00010929B02089585EC8093BC0010929B02CC
:1009D00008951F920F920FB60F9211242F933F93F9
:1009E0004F935F936F937F938F939F93AF93BF9337
:1009F000EF93FF938091B900887F803609F49EC001
:100A000078F5883209F45DC090F4803109F456C05D
:100A100038F4882309F4F5C0883009F44FC0F5C0D4
:100A2000883109F44EC0803209F45FC0EEC08034D2
:100A300009F46AC058F4803309F457C0883309F0C8
:100A4000E4C080932E020E94E304DFC0803509F4E5
:100A50004FC0883509F45DC0883409F0D6C0D3C0D2
:100A6000883909F4C4C0A8F4883709F467C038F499
:100A7000883609F463C0803709F460C0C6C088387E
:100A800009F4B5C0803909F45FC0803809F0BDC0F1
:100A90005BC0803B09F483C038F4803A09F466C037
:100AA000883A09F47CC0B1C0803C09F4A4C0883CF9
:100AB00009F4A1C0883B09F487C0A7C080919A02BD
:100AC00010C09091730280917202981770F5E091B6
:100AD000730281E08E0F80937302F0E0EC58FD4FBB
:100AE00080818093BB0085EC83C080932E028BC0F5
:100AF000E091730281E08E0F809373028091BB00BE
:100B0000F0E0EC58FD4F8083909173028091720267
:100B10006BC0E091730281E08E0F8093730280912D
:100B2000BB00F0E0EC58FD4F808380919902811169
:100B30006AC081E08093980284EA5EC083E080937B
:100B40009B0210922F02CFCF80912F02803208F0AB
:100B50004EC0E0912F0281E08E0F80932F02809192
:100B6000BB00F0E0E05DFD4F8083BDCF0E94E30459
:100B700080912F02803230F4E0912F02F0E0E05DAE
:100B8000FD4F108260912F0270E0E0919402F0918D
:100B9000950280E392E0099510922F0236C084E01E
:100BA00080939B021092510210925002E0919602A3
:100BB000F0919702099580915002811105C081E062
:100BC0008093500210925202E091510281E08E0F08
:100BD00080935102F0E0EE5AFD4F80818093BB007C
:100BE0009091510280915002981708F47CCF85E8CB
:100BF0008093BC000AC085EC8093BC0010929B02DD
:100C000004C010922E020E94D904FF91EF91BF916F
:100C1000AF919F918F917F916F915F914F913F9194
:100C20002F910F900FBE0F901F901895833081F079
:100C300028F4813099F08230A1F008958630A9F02F
:100C40008730B9F08430D1F4809180008F7D03C06B
:100C5000809180008F7780938000089584B58F778E
:100C600002C084B58F7D84BD08958091B0008F77D8
:100C700003C08091B0008F7D8093B00008950F93E2
:100C80001F93CF93DF931F92CDB7DEB7282F30E0AD
:100C9000F901E859FF4F8491F901E458FF4F14918D
:100CA000F901E057FF4F04910023C9F0882321F098
:100CB00069830E9416066981E02FF0E0EE0FFF1FA6
:100CC000EC55FF4FA591B4919FB7F8948C916111A9
:100CD00003C01095812301C0812B8C939FBF0F907F
:100CE000DF91CF911F910F910895A1E21A2EAA1BB7
:100CF000BB1BFD010DC0AA1FBB1FEE1FFF1FA217CC
:100D0000B307E407F50720F0A21BB30BE40BF50BC8
:100D1000661F771F881F991F1A9469F76095709551
:100D2000809590959B01AC01BD01CF010895EE0F18
:0E0D3000FF1F0590F491E02D0994F894FFCF79
:100D3E00524541445900000000007801B9002401D9
:100D4E004D0134016D0100000000940367030D0393
:060D5E0015032803370312
:00000001FF
